{
  "contractName": "CatRescue",
  "abi": [
    {
      "inputs": [],
      "stateMutability": "nonpayable",
      "type": "constructor"
    },
    {
      "inputs": [
        {
          "internalType": "uint256",
          "name": "",
          "type": "uint256"
        }
      ],
      "name": "cat",
      "outputs": [
        {
          "internalType": "string",
          "name": "catsName",
          "type": "string"
        },
        {
          "internalType": "string",
          "name": "gender",
          "type": "string"
        },
        {
          "internalType": "uint256",
          "name": "age",
          "type": "uint256"
        },
        {
          "internalType": "string",
          "name": "description",
          "type": "string"
        },
        {
          "internalType": "string",
          "name": "hash",
          "type": "string"
        },
        {
          "internalType": "bool",
          "name": "available",
          "type": "bool"
        }
      ],
      "stateMutability": "view",
      "type": "function"
    },
    {
      "inputs": [],
      "name": "owner",
      "outputs": [
        {
          "internalType": "address payable",
          "name": "",
          "type": "address"
        }
      ],
      "stateMutability": "view",
      "type": "function"
    },
    {
      "inputs": [
        {
          "internalType": "string",
          "name": "_catName",
          "type": "string"
        },
        {
          "internalType": "string",
          "name": "_catGender",
          "type": "string"
        },
        {
          "internalType": "uint256",
          "name": "_catAge",
          "type": "uint256"
        },
        {
          "internalType": "string",
          "name": "_description",
          "type": "string"
        },
        {
          "internalType": "string",
          "name": "_hash",
          "type": "string"
        },
        {
          "internalType": "bool",
          "name": "_available",
          "type": "bool"
        }
      ],
      "name": "add",
      "outputs": [],
      "stateMutability": "nonpayable",
      "type": "function"
    },
    {
      "inputs": [
        {
          "internalType": "string",
          "name": "personName",
          "type": "string"
        },
        {
          "internalType": "string",
          "name": "personGender",
          "type": "string"
        },
        {
          "internalType": "uint256",
          "name": "personAge",
          "type": "uint256"
        },
        {
          "internalType": "string",
          "name": "_catsName",
          "type": "string"
        },
        {
          "internalType": "uint256",
          "name": "catIndex",
          "type": "uint256"
        }
      ],
      "name": "adopt",
      "outputs": [
        {
          "internalType": "bool",
          "name": "adoptionSuccess",
          "type": "bool"
        }
      ],
      "stateMutability": "nonpayable",
      "type": "function"
    },
    {
      "inputs": [
        {
          "internalType": "uint256",
          "name": "catIndex",
          "type": "uint256"
        }
      ],
      "name": "returnCatToShelter",
      "outputs": [
        {
          "internalType": "bool",
          "name": "returnSuccess",
          "type": "bool"
        }
      ],
      "stateMutability": "nonpayable",
      "type": "function"
    },
    {
      "inputs": [
        {
          "internalType": "uint256",
          "name": "value",
          "type": "uint256"
        }
      ],
      "name": "donate",
      "outputs": [],
      "stateMutability": "payable",
      "type": "function"
    },
    {
      "inputs": [],
      "name": "getDonationBalance",
      "outputs": [
        {
          "internalType": "uint256",
          "name": "donationTotal",
          "type": "uint256"
        }
      ],
      "stateMutability": "view",
      "type": "function"
    },
    {
      "inputs": [],
      "name": "withdrawDonations",
      "outputs": [],
      "stateMutability": "payable",
      "type": "function"
    },
    {
      "inputs": [],
      "name": "getCatsCount",
      "outputs": [
        {
          "internalType": "uint256",
          "name": "catCount",
          "type": "uint256"
        }
      ],
      "stateMutability": "view",
      "type": "function"
    },
    {
      "inputs": [
        {
          "internalType": "uint256",
          "name": "catIndex",
          "type": "uint256"
        }
      ],
      "name": "getCat",
      "outputs": [
        {
          "internalType": "string",
          "name": "name",
          "type": "string"
        },
        {
          "internalType": "string",
          "name": "gender",
          "type": "string"
        },
        {
          "internalType": "uint256",
          "name": "age",
          "type": "uint256"
        },
        {
          "internalType": "string",
          "name": "description",
          "type": "string"
        },
        {
          "internalType": "string",
          "name": "_hash",
          "type": "string"
        },
        {
          "internalType": "bool",
          "name": "available",
          "type": "bool"
        }
      ],
      "stateMutability": "view",
      "type": "function"
    }
  ],
  "bytecode": "0x60806040524760015534801561001457600080fd5b50336000806101000a81548173ffffffffffffffffffffffffffffffffffffffff021916908373ffffffffffffffffffffffffffffffffffffffff1602179055506000600260003373ffffffffffffffffffffffffffffffffffffffff1673ffffffffffffffffffffffffffffffffffffffff16815260200190815260200160002081905550611c42806100a96000396000f3fe6080604052600436106100915760003560e01c8063864db27b11610059578063864db27b146101bf5780638da5cb5b146101ea578063ce1b088a14610215578063f14faf6f1461021f578063f656a6fe1461023b57610091565b80630464f8d014610096578063226f06c6146100c15780633499cf74146100fe5780634da2b48e1461014057806376354e4914610182575b600080fd5b3480156100a257600080fd5b506100ab610264565b6040516100b891906116e6565b60405180910390f35b3480156100cd57600080fd5b506100e860048036038101906100e39190611261565b610271565b6040516100f5919061158e565b60405180910390f35b34801561010a57600080fd5b5061012560048036038101906101209190611330565b610655565b604051610137969594939291906115a9565b60405180910390f35b34801561014c57600080fd5b5061016760048036038101906101629190611330565b6108ce565b604051610179969594939291906115a9565b60405180910390f35b34801561018e57600080fd5b506101a960048036038101906101a49190611330565b610ba9565b6040516101b6919061158e565b60405180910390f35b3480156101cb57600080fd5b506101d4610d6f565b6040516101e191906116e6565b60405180910390f35b3480156101f657600080fd5b506101ff610d79565b60405161020c9190611573565b60405180910390f35b61021d610d9d565b005b61023960048036038101906102349190611330565b610e7b565b005b34801561024757600080fd5b50610262600480360381019061025d9190611164565b610e97565b005b6000600480549050905090565b600081600115156004828154811061028c5761028b6119a7565b5b906000526020600020906006020160050160009054906101000a900460ff161515146102ed576040517f08c379a00000000000000000000000000000000000000000000000000000000081526004016102e4906116a6565b60405180910390fd5b6000600260003373ffffffffffffffffffffffffffffffffffffffff1673ffffffffffffffffffffffffffffffffffffffff168152602001908152602001600020541461036f576040517f08c379a000000000000000000000000000000000000000000000000000000000815260040161036690611686565b60405180910390fd5b60048381548110610383576103826119a7565b5b90600052602060002090600602016000016040516020016103a4919061155c565b60405160208183030381529060405280519060200120846040516020016103cb9190611545565b6040516020818303038152906040528051906020012014610421576040517f08c379a000000000000000000000000000000000000000000000000000000000815260040161041890611626565b60405180910390fd5b85600560003373ffffffffffffffffffffffffffffffffffffffff1673ffffffffffffffffffffffffffffffffffffffff1681526020019081526020016000206000019080519060200190610477929190611027565b5084600560003373ffffffffffffffffffffffffffffffffffffffff1673ffffffffffffffffffffffffffffffffffffffff1681526020019081526020016000206001018190555086600560003373ffffffffffffffffffffffffffffffffffffffff1673ffffffffffffffffffffffffffffffffffffffff1681526020019081526020016000206002019080519060200190610515929190611027565b5083600560003373ffffffffffffffffffffffffffffffffffffffff1673ffffffffffffffffffffffffffffffffffffffff168152602001908152602001600020600301908051906020019061056c929190611027565b50600060048481548110610583576105826119a7565b5b906000526020600020906006020160050160006101000a81548160ff02191690831515021790555042600560003373ffffffffffffffffffffffffffffffffffffffff1673ffffffffffffffffffffffffffffffffffffffff16815260200190815260200160002060040181905550600260003373ffffffffffffffffffffffffffffffffffffffff1673ffffffffffffffffffffffffffffffffffffffff168152602001908152602001600020600081548092919061064290611900565b9190505550600191505095945050505050565b6004818154811061066557600080fd5b90600052602060002090600602016000915090508060000180546106889061189d565b80601f01602080910402602001604051908101604052809291908181526020018280546106b49061189d565b80156107015780601f106106d657610100808354040283529160200191610701565b820191906000526020600020905b8154815290600101906020018083116106e457829003601f168201915b5050505050908060010180546107169061189d565b80601f01602080910402602001604051908101604052809291908181526020018280546107429061189d565b801561078f5780601f106107645761010080835404028352916020019161078f565b820191906000526020600020905b81548152906001019060200180831161077257829003601f168201915b5050505050908060020154908060030180546107aa9061189d565b80601f01602080910402602001604051908101604052809291908181526020018280546107d69061189d565b80156108235780601f106107f857610100808354040283529160200191610823565b820191906000526020600020905b81548152906001019060200180831161080657829003601f168201915b5050505050908060040180546108389061189d565b80601f01602080910402602001604051908101604052809291908181526020018280546108649061189d565b80156108b15780601f10610886576101008083540402835291602001916108b1565b820191906000526020600020905b81548152906001019060200180831161089457829003601f168201915b5050505050908060050160009054906101000a900460ff16905086565b6060806000606080600080600488815481106108ed576108ec6119a7565b5b90600052602060002090600602016040518060c00160405290816000820180546109169061189d565b80601f01602080910402602001604051908101604052809291908181526020018280546109429061189d565b801561098f5780601f106109645761010080835404028352916020019161098f565b820191906000526020600020905b81548152906001019060200180831161097257829003601f168201915b505050505081526020016001820180546109a89061189d565b80601f01602080910402602001604051908101604052809291908181526020018280546109d49061189d565b8015610a215780601f106109f657610100808354040283529160200191610a21565b820191906000526020600020905b815481529060010190602001808311610a0457829003601f168201915b5050505050815260200160028201548152602001600382018054610a449061189d565b80601f0160208091040260200160405190810160405280929190818152602001828054610a709061189d565b8015610abd5780601f10610a9257610100808354040283529160200191610abd565b820191906000526020600020905b815481529060010190602001808311610aa057829003601f168201915b50505050508152602001600482018054610ad69061189d565b80601f0160208091040260200160405190810160405280929190818152602001828054610b029061189d565b8015610b4f5780601f10610b2457610100808354040283529160200191610b4f565b820191906000526020600020905b815481529060010190602001808311610b3257829003601f168201915b505050505081526020016005820160009054906101000a900460ff1615151515815250509050806000015181602001518260400151836060015184608001518560a001519650965096509650965096505091939550919395565b600062015180600560003373ffffffffffffffffffffffffffffffffffffffff1673ffffffffffffffffffffffffffffffffffffffff16815260200190815260200160002060040154610bfc9190611793565b600381905550600354421115610c47576040517f08c379a0000000000000000000000000000000000000000000000000000000008152600401610c3e90611646565b60405180910390fd5b6040518060400160405280600881526020017f52455455524e4544000000000000000000000000000000000000000000000000815250600560003373ffffffffffffffffffffffffffffffffffffffff1673ffffffffffffffffffffffffffffffffffffffff1681526020019081526020016000206003019080519060200190610cd2929190611027565b50600160048381548110610ce957610ce86119a7565b5b906000526020600020906006020160050160006101000a81548160ff021916908315150217905550600260003373ffffffffffffffffffffffffffffffffffffffff1673ffffffffffffffffffffffffffffffffffffffff1681526020019081526020016000206000815480929190610d6190611873565b919050555060019050919050565b6000600154905090565b60008054906101000a900473ffffffffffffffffffffffffffffffffffffffff1681565b60008054906101000a900473ffffffffffffffffffffffffffffffffffffffff1673ffffffffffffffffffffffffffffffffffffffff163373ffffffffffffffffffffffffffffffffffffffff1614610e2b576040517f08c379a0000000000000000000000000000000000000000000000000000000008152600401610e2290611666565b60405180910390fd5b60015460008054906101000a900473ffffffffffffffffffffffffffffffffffffffff1673ffffffffffffffffffffffffffffffffffffffff1631610e709190611793565b506000600181905550565b8060016000828254610e8d9190611793565b9250508190555050565b60008054906101000a900473ffffffffffffffffffffffffffffffffffffffff1673ffffffffffffffffffffffffffffffffffffffff163373ffffffffffffffffffffffffffffffffffffffff1614610f25576040517f08c379a0000000000000000000000000000000000000000000000000000000008152600401610f1c906116c6565b60405180910390fd5b60046040518060c0016040528088815260200187815260200186815260200185815260200184815260200183151581525090806001815401808255809150506001900390600052602060002090600602016000909190919091506000820151816000019080519060200190610f9b929190611027565b506020820151816001019080519060200190610fb8929190611027565b50604082015181600201556060820151816003019080519060200190610fdf929190611027565b506080820151816004019080519060200190610ffc929190611027565b5060a08201518160050160006101000a81548160ff0219169083151502179055505050505050505050565b8280546110339061189d565b90600052602060002090601f016020900481019282611055576000855561109c565b82601f1061106e57805160ff191683800117855561109c565b8280016001018555821561109c579182015b8281111561109b578251825591602001919060010190611080565b5b5090506110a991906110ad565b5090565b5b808211156110c65760008160009055506001016110ae565b5090565b60006110dd6110d884611726565b611701565b9050828152602081018484840111156110f9576110f8611a0a565b5b611104848285611831565b509392505050565b60008135905061111b81611bde565b92915050565b600082601f83011261113657611135611a05565b5b81356111468482602086016110ca565b91505092915050565b60008135905061115e81611bf5565b92915050565b60008060008060008060c0878903121561118157611180611a14565b5b600087013567ffffffffffffffff81111561119f5761119e611a0f565b5b6111ab89828a01611121565b965050602087013567ffffffffffffffff8111156111cc576111cb611a0f565b5b6111d889828a01611121565b95505060406111e989828a0161114f565b945050606087013567ffffffffffffffff81111561120a57611209611a0f565b5b61121689828a01611121565b935050608087013567ffffffffffffffff81111561123757611236611a0f565b5b61124389828a01611121565b92505060a061125489828a0161110c565b9150509295509295509295565b600080600080600060a0868803121561127d5761127c611a14565b5b600086013567ffffffffffffffff81111561129b5761129a611a0f565b5b6112a788828901611121565b955050602086013567ffffffffffffffff8111156112c8576112c7611a0f565b5b6112d488828901611121565b94505060406112e58882890161114f565b935050606086013567ffffffffffffffff81111561130657611305611a0f565b5b61131288828901611121565b92505060806113238882890161114f565b9150509295509295909350565b60006020828403121561134657611345611a14565b5b60006113548482850161114f565b91505092915050565b611366816117e9565b82525050565b611375816117fb565b82525050565b60006113868261176c565b6113908185611777565b93506113a0818560208601611840565b6113a981611a19565b840191505092915050565b60006113bf8261176c565b6113c98185611788565b93506113d9818560208601611840565b80840191505092915050565b600081546113f28161189d565b6113fc8186611788565b9450600182166000811461141757600181146114285761145b565b60ff1983168652818601935061145b565b61143185611757565b60005b8381101561145357815481890152600182019150602081019050611434565b838801955050505b50505092915050565b6000611471603583611777565b915061147c82611a2a565b604082019050919050565b6000611494602c83611777565b915061149f82611a79565b604082019050919050565b60006114b7602c83611777565b91506114c282611ac8565b604082019050919050565b60006114da601483611777565b91506114e582611b17565b602082019050919050565b60006114fd602883611777565b915061150882611b40565b604082019050919050565b6000611520602783611777565b915061152b82611b8f565b604082019050919050565b61153f81611827565b82525050565b600061155182846113b4565b915081905092915050565b600061156882846113e5565b915081905092915050565b6000602082019050611588600083018461135d565b92915050565b60006020820190506115a3600083018461136c565b92915050565b600060c08201905081810360008301526115c3818961137b565b905081810360208301526115d7818861137b565b90506115e66040830187611536565b81810360608301526115f8818661137b565b9050818103608083015261160c818561137b565b905061161b60a083018461136c565b979650505050505050565b6000602082019050818103600083015261163f81611464565b9050919050565b6000602082019050818103600083015261165f81611487565b9050919050565b6000602082019050818103600083015261167f816114aa565b9050919050565b6000602082019050818103600083015261169f816114cd565b9050919050565b600060208201905081810360008301526116bf816114f0565b9050919050565b600060208201905081810360008301526116df81611513565b9050919050565b60006020820190506116fb6000830184611536565b92915050565b600061170b61171c565b905061171782826118cf565b919050565b6000604051905090565b600067ffffffffffffffff821115611741576117406119d6565b5b61174a82611a19565b9050602081019050919050565b60008190508160005260206000209050919050565b600081519050919050565b600082825260208201905092915050565b600081905092915050565b600061179e82611827565b91506117a983611827565b9250827fffffffffffffffffffffffffffffffffffffffffffffffffffffffffffffffff038211156117de576117dd611949565b5b828201905092915050565b60006117f482611807565b9050919050565b60008115159050919050565b600073ffffffffffffffffffffffffffffffffffffffff82169050919050565b6000819050919050565b82818337600083830152505050565b60005b8381101561185e578082015181840152602081019050611843565b8381111561186d576000848401525b50505050565b600061187e82611827565b9150600082141561189257611891611949565b5b600182039050919050565b600060028204905060018216806118b557607f821691505b602082108114156118c9576118c8611978565b5b50919050565b6118d882611a19565b810181811067ffffffffffffffff821117156118f7576118f66119d6565b5b80604052505050565b600061190b82611827565b91507fffffffffffffffffffffffffffffffffffffffffffffffffffffffffffffffff82141561193e5761193d611949565b5b600182019050919050565b7f4e487b7100000000000000000000000000000000000000000000000000000000600052601160045260246000fd5b7f4e487b7100000000000000000000000000000000000000000000000000000000600052602260045260246000fd5b7f4e487b7100000000000000000000000000000000000000000000000000000000600052603260045260246000fd5b7f4e487b7100000000000000000000000000000000000000000000000000000000600052604160045260246000fd5b600080fd5b600080fd5b600080fd5b600080fd5b6000601f19601f8301169050919050565b7f536f72727921204361742773206e616d6520646f6573206e6f74206d6174636860008201527f20776974682074686520696e64657820676976656e0000000000000000000000602082015250565b7f52657475726e73206d7573742062652077697468696e20323420686f7572732060008201527f6f662061646f7074696f6e210000000000000000000000000000000000000000602082015250565b7f536f72727921204f6e6c7920746865206f776e6572206d617920636f6c6c656360008201527f7420646f6e6174696f6e732e0000000000000000000000000000000000000000602082015250565b7f596f7520616c72656164792061646f7074656421000000000000000000000000600082015250565b7f536f7272792120546869732063617420686173206265656e2061646f7074656460008201527f20616c7265616479000000000000000000000000000000000000000000000000602082015250565b7f536f72727921204f6e6c7920746865206f776e6572206d6179207368656c746560008201527f7220636174732e00000000000000000000000000000000000000000000000000602082015250565b611be7816117fb565b8114611bf257600080fd5b50565b611bfe81611827565b8114611c0957600080fd5b5056fea2646970667358221220898eeaca81025f6d7021ee6f244eee305f5883f8ff056b374e964d9f15f6266464736f6c63430008070033",
  "immutableReferences": {},
  "source": "// SPDX-License-Identifier: Gabriela Kadzielawa 2023\n// compiler version must be greater than or equal to 0.8.3 and less than 0.9.0\npragma solidity >=0.8.7;\n\ncontract CatRescue {\n\n    address payable public owner;\n    uint256 balance = address(this).balance;\n    mapping(address => uint) adopted;\n    uint returnExpiration;\n\n    modifier isAllowed(uint catIndex) {\n        require(cat[catIndex].available == true, \"Sorry! This cat has been adopted already\");\n        _;\n    } \n\n    struct Cat {\n        string catsName;\n        string gender;\n        uint age;\n        string description;\n        string hash;\n        bool available;   \n    }\n    Cat[] public cat;\n\n    struct Customer {\n        string gender;\n        uint age;\n        string name;\n        string pet;\n        uint adoptionTime;\n    }\n    mapping (address => Customer) private Customers;\n\n    constructor() public {\n        owner = payable(msg.sender);\n        adopted[msg.sender] = 0;\n    }\n\n    function add(string memory _catName, string memory _catGender, uint _catAge, string memory _description, string memory _hash, bool _available) public {\n        require(msg.sender == owner, \"Sorry! Only the owner may shelter cats.\");\n\n        cat.push(Cat({\n            catsName : _catName,\n            gender : _catGender,\n            age : _catAge,\n            description : _description,\n            hash : _hash,\n            available : _available\n        }));\n    }\n\n    function adopt(string memory personName, string memory personGender, uint personAge, string memory _catsName, uint catIndex) public isAllowed(catIndex) returns(bool adoptionSuccess) {\n        require(adopted[msg.sender] == 0, \"You already adopted!\");\n        require(keccak256(abi.encodePacked(_catsName)) == keccak256(abi.encodePacked(cat[catIndex].catsName)), \"Sorry! Cat's name does not match with the index given\");\n\n        Customers[msg.sender].gender = personGender;\n        Customers[msg.sender].age = personAge;\n        Customers[msg.sender].name = personName;\n        Customers[msg.sender].pet = _catsName;\n        cat[catIndex].available = false;\n        Customers[msg.sender].adoptionTime = block.timestamp;\n        adopted[msg.sender]++;\n        return true;\n    }\n\n    function returnCatToShelter(uint catIndex) public returns(bool returnSuccess) {\n        returnExpiration = Customers[msg.sender].adoptionTime + 1 days;\n        require(block.timestamp <= returnExpiration, \"Returns must be within 24 hours of adoption!\");\n\n        Customers[msg.sender].pet = \"RETURNED\";\n        cat[catIndex].available = true;\n        adopted[msg.sender]--;\n        return true;\n    }\n\n    function donate(uint256 value) public payable {\n        balance += value;\n    }\n\n    function getDonationBalance() public view returns(uint256 donationTotal) {\n        return balance;\n    }\n\n    function withdrawDonations() public payable {\n        require(msg.sender == owner, \"Sorry! Only the owner may collect donations.\");\n        owner.balance + balance;\n        balance = 0;\n    }\n\n    function getCatsCount() public view returns (uint256 catCount) {\n        return cat.length;\n    }\n\n    function getCat(uint256 catIndex) public view returns(string memory name, string memory gender, uint age, string memory description, string memory _hash, bool available) {\n        Cat memory specificCat = cat[catIndex];\n        return(specificCat.catsName, specificCat.gender, specificCat.age, specificCat.description, specificCat.hash, specificCat.available);\n    }\n\n    // function getReceipt() public view returns(string memory customers_name, uint customers_age, string memory customers_gender, string memory customers_pet) {\n    //     return(Customers[msg.sender].name, Customers[msg.sender].age, Customers[msg.sender].gender, Customers[msg.sender].pet);\n    // }\n}",
  "sourcePath": "/Users/gabrielakadzielawa/Desktop/CatRescue copy/DApp-CatRescue-Project/contracts/CatRescue.sol",
  "compiler": {
    "name": "solc",
    "version": "0.8.7+commit.e28d00a7.Emscripten.clang"
  },
  "schemaVersion": "3.4.1",
  "updatedAt": "2023-09-02T11:44:06.389Z",
  "devdoc": {
    "kind": "dev",
    "methods": {},
    "version": 1
  },
  "userdoc": {
    "kind": "user",
    "methods": {},
    "version": 1
  }
}