{
  "contractName": "CatRescue",
  "abi": [
    {
      "inputs": [],
      "stateMutability": "nonpayable",
      "type": "constructor"
    },
    {
      "inputs": [
        {
          "internalType": "uint256",
          "name": "",
          "type": "uint256"
        }
      ],
      "name": "cat",
      "outputs": [
        {
          "internalType": "string",
          "name": "catsName",
          "type": "string"
        },
        {
          "internalType": "string",
          "name": "gender",
          "type": "string"
        },
        {
          "internalType": "uint256",
          "name": "age",
          "type": "uint256"
        },
        {
          "internalType": "string",
          "name": "description",
          "type": "string"
        },
        {
          "internalType": "string",
          "name": "hash",
          "type": "string"
        },
        {
          "internalType": "bool",
          "name": "available",
          "type": "bool"
        }
      ],
      "stateMutability": "view",
      "type": "function",
      "constant": true
    },
    {
      "inputs": [
        {
          "internalType": "string",
          "name": "_catName",
          "type": "string"
        },
        {
          "internalType": "string",
          "name": "_catGender",
          "type": "string"
        },
        {
          "internalType": "uint256",
          "name": "_catAge",
          "type": "uint256"
        },
        {
          "internalType": "string",
          "name": "_description",
          "type": "string"
        },
        {
          "internalType": "string",
          "name": "_hash",
          "type": "string"
        },
        {
          "internalType": "bool",
          "name": "_available",
          "type": "bool"
        }
      ],
      "name": "add",
      "outputs": [],
      "stateMutability": "nonpayable",
      "type": "function"
    },
    {
      "inputs": [
        {
          "internalType": "string",
          "name": "personName",
          "type": "string"
        },
        {
          "internalType": "string",
          "name": "personGender",
          "type": "string"
        },
        {
          "internalType": "uint256",
          "name": "personAge",
          "type": "uint256"
        },
        {
          "internalType": "string",
          "name": "_catsName",
          "type": "string"
        },
        {
          "internalType": "uint256",
          "name": "catIndex",
          "type": "uint256"
        }
      ],
      "name": "adopt",
      "outputs": [
        {
          "internalType": "bool",
          "name": "adoptionSuccess",
          "type": "bool"
        }
      ],
      "stateMutability": "nonpayable",
      "type": "function"
    },
    {
      "inputs": [
        {
          "internalType": "uint256",
          "name": "catIndex",
          "type": "uint256"
        }
      ],
      "name": "returnAnimalToShelter",
      "outputs": [
        {
          "internalType": "bool",
          "name": "returnSuccess",
          "type": "bool"
        }
      ],
      "stateMutability": "nonpayable",
      "type": "function"
    },
    {
      "inputs": [
        {
          "internalType": "uint256",
          "name": "value",
          "type": "uint256"
        }
      ],
      "name": "donate",
      "outputs": [],
      "stateMutability": "payable",
      "type": "function",
      "payable": true
    },
    {
      "inputs": [],
      "name": "getCatsCount",
      "outputs": [
        {
          "internalType": "uint256",
          "name": "catCount",
          "type": "uint256"
        }
      ],
      "stateMutability": "view",
      "type": "function",
      "constant": true
    },
    {
      "inputs": [
        {
          "internalType": "uint256",
          "name": "catIndex",
          "type": "uint256"
        }
      ],
      "name": "getCat",
      "outputs": [
        {
          "internalType": "string",
          "name": "name",
          "type": "string"
        },
        {
          "internalType": "string",
          "name": "gender",
          "type": "string"
        },
        {
          "internalType": "uint256",
          "name": "age",
          "type": "uint256"
        },
        {
          "internalType": "string",
          "name": "description",
          "type": "string"
        },
        {
          "internalType": "string",
          "name": "_hash",
          "type": "string"
        },
        {
          "internalType": "bool",
          "name": "available",
          "type": "bool"
        }
      ],
      "stateMutability": "view",
      "type": "function",
      "constant": true
    },
    {
      "inputs": [],
      "name": "getReceipt",
      "outputs": [
        {
          "internalType": "string",
          "name": "customers_name",
          "type": "string"
        },
        {
          "internalType": "uint256",
          "name": "customers_age",
          "type": "uint256"
        },
        {
          "internalType": "string",
          "name": "customers_gender",
          "type": "string"
        },
        {
          "internalType": "string",
          "name": "customers_pet",
          "type": "string"
        }
      ],
      "stateMutability": "view",
      "type": "function",
      "constant": true
    },
    {
      "inputs": [],
      "name": "getDonationBalance",
      "outputs": [
        {
          "internalType": "uint256",
          "name": "donationTotal",
          "type": "uint256"
        }
      ],
      "stateMutability": "view",
      "type": "function",
      "constant": true
    }
  ],
  "bytecode": "0x6080604052336000806101000a81548173ffffffffffffffffffffffffffffffffffffffff021916908373ffffffffffffffffffffffffffffffffffffffff1602179055504760015534801561005457600080fd5b506000600260003373ffffffffffffffffffffffffffffffffffffffff1673ffffffffffffffffffffffffffffffffffffffff16815260200190815260200160002081905550611da7806100a96000396000f3fe6080604052600436106100865760003560e01c806357d945c91161005957806357d945c914610177578063864db27b146101a5578063d25bd868146101d0578063f14faf6f1461020d578063f656a6fe1461022957610086565b80630464f8d01461008b578063226f06c6146100b65780633499cf74146100f35780634da2b48e14610135575b600080fd5b34801561009757600080fd5b506100a0610252565b6040516100ad919061190f565b60405180910390f35b3480156100c257600080fd5b506100dd60048036038101906100d891906114b1565b61025f565b6040516100ea919061177d565b60405180910390f35b3480156100ff57600080fd5b5061011a60048036038101906101159190611570565b6106b5565b60405161012c96959493929190611798565b60405180910390f35b34801561014157600080fd5b5061015c60048036038101906101579190611570565b61092e565b60405161016e96959493929190611798565b60405180910390f35b34801561018357600080fd5b5061018c610c2f565b60405161019c9493929190611815565b60405180910390f35b3480156101b157600080fd5b506101ba610ef1565b6040516101c7919061190f565b60405180910390f35b3480156101dc57600080fd5b506101f760048036038101906101f29190611570565b610efb565b604051610204919061177d565b60405180910390f35b61022760048036038101906102229190611570565b6110e7565b005b34801561023557600080fd5b50610250600480360381019061024b91906113c8565b611103565b005b6000600480549050905090565b60008160011515600482815481106102a0577f4e487b7100000000000000000000000000000000000000000000000000000000600052603260045260246000fd5b906000526020600020906006020160050160009054906101000a900460ff16151514610301576040517f08c379a00000000000000000000000000000000000000000000000000000000081526004016102f8906118cf565b60405180910390fd5b6000600260003373ffffffffffffffffffffffffffffffffffffffff1673ffffffffffffffffffffffffffffffffffffffff1681526020019081526020016000205414610383576040517f08c379a000000000000000000000000000000000000000000000000000000000815260040161037a906118af565b60405180910390fd5b600483815481106103bd577f4e487b7100000000000000000000000000000000000000000000000000000000600052603260045260246000fd5b90600052602060002090600602016000016040516020016103de9190611766565b6040516020818303038152906040528051906020012084604051602001610405919061174f565b604051602081830303815290604052805190602001201461045b576040517f08c379a00000000000000000000000000000000000000000000000000000000081526004016104529061186f565b60405180910390fd5b85600560003373ffffffffffffffffffffffffffffffffffffffff1673ffffffffffffffffffffffffffffffffffffffff16815260200190815260200160002060000190805190602001906104b1929190611293565b5084600560003373ffffffffffffffffffffffffffffffffffffffff1673ffffffffffffffffffffffffffffffffffffffff1681526020019081526020016000206001018190555086600560003373ffffffffffffffffffffffffffffffffffffffff1673ffffffffffffffffffffffffffffffffffffffff168152602001908152602001600020600201908051906020019061054f929190611293565b5083600560003373ffffffffffffffffffffffffffffffffffffffff1673ffffffffffffffffffffffffffffffffffffffff16815260200190815260200160002060030190805190602001906105a6929190611293565b506000600484815481106105e3577f4e487b7100000000000000000000000000000000000000000000000000000000600052603260045260246000fd5b906000526020600020906006020160050160006101000a81548160ff02191690831515021790555042600560003373ffffffffffffffffffffffffffffffffffffffff1673ffffffffffffffffffffffffffffffffffffffff16815260200190815260200160002060040181905550600260003373ffffffffffffffffffffffffffffffffffffffff1673ffffffffffffffffffffffffffffffffffffffff16815260200190815260200160002060008154809291906106a290611af7565b9190505550600191505095945050505050565b600481815481106106c557600080fd5b90600052602060002090600602016000915090508060000180546106e890611a94565b80601f016020809104026020016040519081016040528092919081815260200182805461071490611a94565b80156107615780601f1061073657610100808354040283529160200191610761565b820191906000526020600020905b81548152906001019060200180831161074457829003601f168201915b50505050509080600101805461077690611a94565b80601f01602080910402602001604051908101604052809291908181526020018280546107a290611a94565b80156107ef5780601f106107c4576101008083540402835291602001916107ef565b820191906000526020600020905b8154815290600101906020018083116107d257829003601f168201915b50505050509080600201549080600301805461080a90611a94565b80601f016020809104026020016040519081016040528092919081815260200182805461083690611a94565b80156108835780601f1061085857610100808354040283529160200191610883565b820191906000526020600020905b81548152906001019060200180831161086657829003601f168201915b50505050509080600401805461089890611a94565b80601f01602080910402602001604051908101604052809291908181526020018280546108c490611a94565b80156109115780601f106108e657610100808354040283529160200191610911565b820191906000526020600020905b8154815290600101906020018083116108f457829003601f168201915b5050505050908060050160009054906101000a900460ff16905086565b606080600060608060008060048881548110610973577f4e487b7100000000000000000000000000000000000000000000000000000000600052603260045260246000fd5b90600052602060002090600602016040518060c001604052908160008201805461099c90611a94565b80601f01602080910402602001604051908101604052809291908181526020018280546109c890611a94565b8015610a155780601f106109ea57610100808354040283529160200191610a15565b820191906000526020600020905b8154815290600101906020018083116109f857829003601f168201915b50505050508152602001600182018054610a2e90611a94565b80601f0160208091040260200160405190810160405280929190818152602001828054610a5a90611a94565b8015610aa75780601f10610a7c57610100808354040283529160200191610aa7565b820191906000526020600020905b815481529060010190602001808311610a8a57829003601f168201915b5050505050815260200160028201548152602001600382018054610aca90611a94565b80601f0160208091040260200160405190810160405280929190818152602001828054610af690611a94565b8015610b435780601f10610b1857610100808354040283529160200191610b43565b820191906000526020600020905b815481529060010190602001808311610b2657829003601f168201915b50505050508152602001600482018054610b5c90611a94565b80601f0160208091040260200160405190810160405280929190818152602001828054610b8890611a94565b8015610bd55780601f10610baa57610100808354040283529160200191610bd5565b820191906000526020600020905b815481529060010190602001808311610bb857829003601f168201915b505050505081526020016005820160009054906101000a900460ff1615151515815250509050806000015181602001518260400151836060015184608001518560a001519650965096509650965096505091939550919395565b60606000606080600560003373ffffffffffffffffffffffffffffffffffffffff1673ffffffffffffffffffffffffffffffffffffffff168152602001908152602001600020600201600560003373ffffffffffffffffffffffffffffffffffffffff1673ffffffffffffffffffffffffffffffffffffffff16815260200190815260200160002060010154600560003373ffffffffffffffffffffffffffffffffffffffff1673ffffffffffffffffffffffffffffffffffffffff168152602001908152602001600020600001600560003373ffffffffffffffffffffffffffffffffffffffff1673ffffffffffffffffffffffffffffffffffffffff168152602001908152602001600020600301838054610d4b90611a94565b80601f0160208091040260200160405190810160405280929190818152602001828054610d7790611a94565b8015610dc45780601f10610d9957610100808354040283529160200191610dc4565b820191906000526020600020905b815481529060010190602001808311610da757829003601f168201915b50505050509350818054610dd790611a94565b80601f0160208091040260200160405190810160405280929190818152602001828054610e0390611a94565b8015610e505780601f10610e2557610100808354040283529160200191610e50565b820191906000526020600020905b815481529060010190602001808311610e3357829003601f168201915b50505050509150808054610e6390611a94565b80601f0160208091040260200160405190810160405280929190818152602001828054610e8f90611a94565b8015610edc5780601f10610eb157610100808354040283529160200191610edc565b820191906000526020600020905b815481529060010190602001808311610ebf57829003601f168201915b50505050509050935093509350935090919293565b6000600154905090565b600062015180600560003373ffffffffffffffffffffffffffffffffffffffff1673ffffffffffffffffffffffffffffffffffffffff16815260200190815260200160002060040154610f4e91906119bc565b600381905550600354421115610f99576040517f08c379a0000000000000000000000000000000000000000000000000000000008152600401610f909061188f565b60405180910390fd5b6040518060400160405280600881526020017f52455455524e4544000000000000000000000000000000000000000000000000815250600560003373ffffffffffffffffffffffffffffffffffffffff1673ffffffffffffffffffffffffffffffffffffffff1681526020019081526020016000206003019080519060200190611024929190611293565b50600160048381548110611061577f4e487b7100000000000000000000000000000000000000000000000000000000600052603260045260246000fd5b906000526020600020906006020160050160006101000a81548160ff021916908315150217905550600260003373ffffffffffffffffffffffffffffffffffffffff1673ffffffffffffffffffffffffffffffffffffffff16815260200190815260200160002060008154809291906110d990611a6a565b919050555060019050919050565b80600160008282546110f991906119bc565b9250508190555050565b60008054906101000a900473ffffffffffffffffffffffffffffffffffffffff1673ffffffffffffffffffffffffffffffffffffffff163373ffffffffffffffffffffffffffffffffffffffff1614611191576040517f08c379a0000000000000000000000000000000000000000000000000000000008152600401611188906118ef565b60405180910390fd5b60046040518060c0016040528088815260200187815260200186815260200185815260200184815260200183151581525090806001815401808255809150506001900390600052602060002090600602016000909190919091506000820151816000019080519060200190611207929190611293565b506020820151816001019080519060200190611224929190611293565b5060408201518160020155606082015181600301908051906020019061124b929190611293565b506080820151816004019080519060200190611268929190611293565b5060a08201518160050160006101000a81548160ff0219169083151502179055505050505050505050565b82805461129f90611a94565b90600052602060002090601f0160209004810192826112c15760008555611308565b82601f106112da57805160ff1916838001178555611308565b82800160010185558215611308579182015b828111156113075782518255916020019190600101906112ec565b5b5090506113159190611319565b5090565b5b8082111561133257600081600090555060010161131a565b5090565b60006113496113448461194f565b61192a565b90508281526020810184848401111561136157600080fd5b61136c848285611a28565b509392505050565b60008135905061138381611d43565b92915050565b600082601f83011261139a57600080fd5b81356113aa848260208601611336565b91505092915050565b6000813590506113c281611d5a565b92915050565b60008060008060008060c087890312156113e157600080fd5b600087013567ffffffffffffffff8111156113fb57600080fd5b61140789828a01611389565b965050602087013567ffffffffffffffff81111561142457600080fd5b61143089828a01611389565b955050604061144189828a016113b3565b945050606087013567ffffffffffffffff81111561145e57600080fd5b61146a89828a01611389565b935050608087013567ffffffffffffffff81111561148757600080fd5b61149389828a01611389565b92505060a06114a489828a01611374565b9150509295509295509295565b600080600080600060a086880312156114c957600080fd5b600086013567ffffffffffffffff8111156114e357600080fd5b6114ef88828901611389565b955050602086013567ffffffffffffffff81111561150c57600080fd5b61151888828901611389565b9450506040611529888289016113b3565b935050606086013567ffffffffffffffff81111561154657600080fd5b61155288828901611389565b9250506080611563888289016113b3565b9150509295509295909350565b60006020828403121561158257600080fd5b6000611590848285016113b3565b91505092915050565b6115a281611a12565b82525050565b60006115b382611995565b6115bd81856119a0565b93506115cd818560208601611a37565b6115d681611bcd565b840191505092915050565b60006115ec82611995565b6115f681856119b1565b9350611606818560208601611a37565b80840191505092915050565b6000815461161f81611a94565b61162981866119b1565b94506001821660008114611644576001811461165557611688565b60ff19831686528186019350611688565b61165e85611980565b60005b8381101561168057815481890152600182019150602081019050611661565b838801955050505b50505092915050565b600061169e6035836119a0565b91506116a982611bde565b604082019050919050565b60006116c1602c836119a0565b91506116cc82611c2d565b604082019050919050565b60006116e46014836119a0565b91506116ef82611c7c565b602082019050919050565b60006117076028836119a0565b915061171282611ca5565b604082019050919050565b600061172a6027836119a0565b915061173582611cf4565b604082019050919050565b61174981611a1e565b82525050565b600061175b82846115e1565b915081905092915050565b60006117728284611612565b915081905092915050565b60006020820190506117926000830184611599565b92915050565b600060c08201905081810360008301526117b281896115a8565b905081810360208301526117c681886115a8565b90506117d56040830187611740565b81810360608301526117e781866115a8565b905081810360808301526117fb81856115a8565b905061180a60a0830184611599565b979650505050505050565b6000608082019050818103600083015261182f81876115a8565b905061183e6020830186611740565b818103604083015261185081856115a8565b9050818103606083015261186481846115a8565b905095945050505050565b6000602082019050818103600083015261188881611691565b9050919050565b600060208201905081810360008301526118a8816116b4565b9050919050565b600060208201905081810360008301526118c8816116d7565b9050919050565b600060208201905081810360008301526118e8816116fa565b9050919050565b600060208201905081810360008301526119088161171d565b9050919050565b60006020820190506119246000830184611740565b92915050565b6000611934611945565b90506119408282611ac6565b919050565b6000604051905090565b600067ffffffffffffffff82111561196a57611969611b9e565b5b61197382611bcd565b9050602081019050919050565b60008190508160005260206000209050919050565b600081519050919050565b600082825260208201905092915050565b600081905092915050565b60006119c782611a1e565b91506119d283611a1e565b9250827fffffffffffffffffffffffffffffffffffffffffffffffffffffffffffffffff03821115611a0757611a06611b40565b5b828201905092915050565b60008115159050919050565b6000819050919050565b82818337600083830152505050565b60005b83811015611a55578082015181840152602081019050611a3a565b83811115611a64576000848401525b50505050565b6000611a7582611a1e565b91506000821415611a8957611a88611b40565b5b600182039050919050565b60006002820490506001821680611aac57607f821691505b60208210811415611ac057611abf611b6f565b5b50919050565b611acf82611bcd565b810181811067ffffffffffffffff82111715611aee57611aed611b9e565b5b80604052505050565b6000611b0282611a1e565b91507fffffffffffffffffffffffffffffffffffffffffffffffffffffffffffffffff821415611b3557611b34611b40565b5b600182019050919050565b7f4e487b7100000000000000000000000000000000000000000000000000000000600052601160045260246000fd5b7f4e487b7100000000000000000000000000000000000000000000000000000000600052602260045260246000fd5b7f4e487b7100000000000000000000000000000000000000000000000000000000600052604160045260246000fd5b6000601f19601f8301169050919050565b7f536f72727921204361742773206e616d6520646f6573206e6f74206d6174636860008201527f20776974682074686520696e64657820676976656e0000000000000000000000602082015250565b7f52657475726e73206d7573742062652077697468696e20323420686f7572732060008201527f6f662061646f7074696f6e210000000000000000000000000000000000000000602082015250565b7f596f7520616c72656164792061646f7074656421000000000000000000000000600082015250565b7f536f7272792120546869732063617420686173206265656e2061646f7074656460008201527f20616c7265616479000000000000000000000000000000000000000000000000602082015250565b7f536f72727921204f6e6c7920746865206f776e6572206d6179207368656c746560008201527f7220636174732e00000000000000000000000000000000000000000000000000602082015250565b611d4c81611a12565b8114611d5757600080fd5b50565b611d6381611a1e565b8114611d6e57600080fd5b5056fea26469706673582212203e84079cd01e9582ab466d92bff3a7bbeb26f513462eab3b6f5d9b93c17d185064736f6c63430008030033",
  "immutableReferences": {},
  "source": "// SPDX-License-Identifier: Gabriela Kadzielawa 2023\n// compiler version must be greater than or equal to 0.8.3 and less than 0.9.0\npragma solidity >=0.8.3;\n\ncontract CatRescue {\n\n    address owner = msg.sender;\n    uint balance = address(this).balance;\n    mapping(address => uint) adopted;\n    uint returnExpiration;\n\n    modifier isAllowed(uint catIndex) {\n        require(cat[catIndex].available == true, \"Sorry! This cat has been adopted already\");\n        _;\n    } \n\n    struct Cat {\n        string catsName;\n        string gender;\n        uint age;\n        string description;\n        string hash;\n        bool available;   \n    }\n    Cat[] public cat;\n\n    struct Customer {\n        string gender;\n        uint age;\n        string name;\n        string pet;\n        uint adoptionTime;\n    }\n    mapping (address => Customer) private Customers;\n\n    constructor() public {\n        adopted[msg.sender] = 0;\n    }\n\n    function add(string memory _catName, string memory _catGender, uint _catAge, string memory _description, string memory _hash, bool _available) public {\n        require(msg.sender == owner, \"Sorry! Only the owner may shelter cats.\");\n\n        cat.push(Cat({\n            catsName : _catName,\n            gender : _catGender,\n            age : _catAge,\n            description : _description,\n            hash : _hash,\n            available : _available\n        }));\n    }\n\n    function adopt(string memory personName, string memory personGender, uint personAge, string memory _catsName, uint catIndex) public isAllowed(catIndex) returns(bool adoptionSuccess) {\n        require(adopted[msg.sender] == 0, \"You already adopted!\");\n        require(keccak256(abi.encodePacked(_catsName)) == keccak256(abi.encodePacked(cat[catIndex].catsName)), \"Sorry! Cat's name does not match with the index given\");\n\n        Customers[msg.sender].gender = personGender;\n        Customers[msg.sender].age = personAge;\n        Customers[msg.sender].name = personName;\n        Customers[msg.sender].pet = _catsName;\n        cat[catIndex].available = false;\n        Customers[msg.sender].adoptionTime = block.timestamp;\n        adopted[msg.sender]++;\n        return true;\n    }\n\n    function returnAnimalToShelter(uint catIndex) public returns(bool returnSuccess) {\n        returnExpiration = Customers[msg.sender].adoptionTime + 1 days;\n        require(block.timestamp <= returnExpiration, \"Returns must be within 24 hours of adoption!\");\n\n        Customers[msg.sender].pet = \"RETURNED\";\n        cat[catIndex].available = true;\n        adopted[msg.sender]--;\n        return true;\n    }\n\n    function donate(uint256 value) public payable {\n        balance += value;\n    }\n\n    function getCatsCount() public view returns (uint256 catCount) {\n        return cat.length;\n    }\n\n    function getCat(uint256 catIndex) public view returns(string memory name, string memory gender, uint age, string memory description, string memory _hash, bool available) {\n        Cat memory specificCat = cat[catIndex];\n        return(specificCat.catsName, specificCat.gender, specificCat.age, specificCat.description, specificCat.hash, specificCat.available);\n    }\n\n    function getReceipt() public view returns(string memory customers_name, uint customers_age, string memory customers_gender, string memory customers_pet) {\n        return(Customers[msg.sender].name, Customers[msg.sender].age, Customers[msg.sender].gender, Customers[msg.sender].pet);\n    }\n\n    function getDonationBalance() public view returns(uint donationTotal) {\n        return balance;\n    }\n}",
  "sourcePath": "/Users/gabrielakadzielawa/Desktop/CatRescue copy/DApp-CatRescue-Project/contracts/CatRescue.sol",
  "compiler": {
    "name": "solc",
    "version": "0.8.3+commit.8d00100c.Emscripten.clang"
  },
  "schemaVersion": "3.4.1",
  "updatedAt": "2023-05-13T04:51:28.804Z",
  "networkType": "ethereum",
  "devdoc": {
    "kind": "dev",
    "methods": {},
    "version": 1
  },
  "userdoc": {
    "kind": "user",
    "methods": {},
    "version": 1
  }
}