{
  "contractName": "CatRescue",
  "abi": [
    {
      "inputs": [],
      "stateMutability": "nonpayable",
      "type": "constructor"
    },
    {
      "inputs": [
        {
          "internalType": "uint256",
          "name": "",
          "type": "uint256"
        }
      ],
      "name": "cat",
      "outputs": [
        {
          "internalType": "string",
          "name": "catsName",
          "type": "string"
        },
        {
          "internalType": "string",
          "name": "gender",
          "type": "string"
        },
        {
          "internalType": "uint8",
          "name": "age",
          "type": "uint8"
        },
        {
          "internalType": "string",
          "name": "description",
          "type": "string"
        },
        {
          "internalType": "string",
          "name": "hash",
          "type": "string"
        },
        {
          "internalType": "bool",
          "name": "available",
          "type": "bool"
        }
      ],
      "stateMutability": "view",
      "type": "function",
      "constant": true
    },
    {
      "inputs": [],
      "name": "owner",
      "outputs": [
        {
          "internalType": "address payable",
          "name": "",
          "type": "address"
        }
      ],
      "stateMutability": "view",
      "type": "function",
      "constant": true
    },
    {
      "inputs": [
        {
          "internalType": "string",
          "name": "_catName",
          "type": "string"
        },
        {
          "internalType": "string",
          "name": "_catGender",
          "type": "string"
        },
        {
          "internalType": "uint8",
          "name": "_catAge",
          "type": "uint8"
        },
        {
          "internalType": "string",
          "name": "_description",
          "type": "string"
        },
        {
          "internalType": "string",
          "name": "_hash",
          "type": "string"
        },
        {
          "internalType": "bool",
          "name": "_available",
          "type": "bool"
        }
      ],
      "name": "add",
      "outputs": [],
      "stateMutability": "nonpayable",
      "type": "function"
    },
    {
      "inputs": [
        {
          "internalType": "string",
          "name": "personName",
          "type": "string"
        },
        {
          "internalType": "string",
          "name": "personGender",
          "type": "string"
        },
        {
          "internalType": "uint8",
          "name": "personAge",
          "type": "uint8"
        },
        {
          "internalType": "string",
          "name": "_catsName",
          "type": "string"
        },
        {
          "internalType": "uint8",
          "name": "catIndex",
          "type": "uint8"
        }
      ],
      "name": "adopt",
      "outputs": [
        {
          "internalType": "bool",
          "name": "adoptionSuccess",
          "type": "bool"
        }
      ],
      "stateMutability": "nonpayable",
      "type": "function"
    },
    {
      "inputs": [
        {
          "internalType": "uint8",
          "name": "catIndex",
          "type": "uint8"
        }
      ],
      "name": "returnCatToShelter",
      "outputs": [
        {
          "internalType": "bool",
          "name": "returnSuccess",
          "type": "bool"
        }
      ],
      "stateMutability": "nonpayable",
      "type": "function"
    },
    {
      "inputs": [
        {
          "internalType": "uint256",
          "name": "value",
          "type": "uint256"
        }
      ],
      "name": "donate",
      "outputs": [],
      "stateMutability": "payable",
      "type": "function",
      "payable": true
    },
    {
      "inputs": [],
      "name": "getDonationBalance",
      "outputs": [
        {
          "internalType": "uint256",
          "name": "donationTotal",
          "type": "uint256"
        }
      ],
      "stateMutability": "view",
      "type": "function",
      "constant": true
    },
    {
      "inputs": [],
      "name": "withdrawDonations",
      "outputs": [],
      "stateMutability": "payable",
      "type": "function",
      "payable": true
    },
    {
      "inputs": [],
      "name": "getCatsCount",
      "outputs": [
        {
          "internalType": "uint256",
          "name": "catCount",
          "type": "uint256"
        }
      ],
      "stateMutability": "view",
      "type": "function",
      "constant": true
    },
    {
      "inputs": [
        {
          "internalType": "uint8",
          "name": "catIndex",
          "type": "uint8"
        }
      ],
      "name": "getCat",
      "outputs": [
        {
          "internalType": "string",
          "name": "name",
          "type": "string"
        },
        {
          "internalType": "string",
          "name": "gender",
          "type": "string"
        },
        {
          "internalType": "uint8",
          "name": "age",
          "type": "uint8"
        },
        {
          "internalType": "string",
          "name": "description",
          "type": "string"
        },
        {
          "internalType": "string",
          "name": "_hash",
          "type": "string"
        },
        {
          "internalType": "bool",
          "name": "available",
          "type": "bool"
        }
      ],
      "stateMutability": "view",
      "type": "function",
      "constant": true
    }
  ],
  "bytecode": "0x60806040524760015534801561001457600080fd5b50336000806101000a81548173ffffffffffffffffffffffffffffffffffffffff021916908373ffffffffffffffffffffffffffffffffffffffff1602179055506000600260003373ffffffffffffffffffffffffffffffffffffffff1673ffffffffffffffffffffffffffffffffffffffff16815260200190815260200160002081905550611e35806100a96000396000f3fe6080604052600436106100915760003560e01c8063864db27b11610059578063864db27b146101ab5780638da5cb5b146101d6578063ce1b088a14610201578063e3e46dc41461020b578063f14faf6f1461024857610091565b80630464f8d01461009657806317c1788b146100c15780632f62a8a1146101035780633499cf74146101405780636d73fc1214610182575b600080fd5b3480156100a257600080fd5b506100ab610264565b6040516100b89190611866565b60405180910390f35b3480156100cd57600080fd5b506100e860048036038101906100e3919061145e565b610271565b6040516100fa96959493929190611709565b60405180910390f35b34801561010f57600080fd5b5061012a6004803603810190610125919061145e565b610562565b60405161013791906116ee565b60405180910390f35b34801561014c57600080fd5b5061016760048036038101906101629190611431565b61072b565b60405161017996959493929190611709565b60405180910390f35b34801561018e57600080fd5b506101a960048036038101906101a49190611265565b6109b1565b005b3480156101b757600080fd5b506101c0610b5b565b6040516101cd9190611866565b60405180910390f35b3480156101e257600080fd5b506101eb610bf4565b6040516101f891906116d3565b60405180910390f35b610209610c18565b005b34801561021757600080fd5b50610232600480360381019061022d9190611362565b610cf6565b60405161023f91906116ee565b60405180910390f35b610262600480360381019061025d9190611431565b6110f7565b005b6000600480549050905090565b606080600060608060008060048860ff168154811061029357610292611b34565b5b90600052602060002090600602016040518060c00160405290816000820180546102bc90611a2a565b80601f01602080910402602001604051908101604052809291908181526020018280546102e890611a2a565b80156103355780601f1061030a57610100808354040283529160200191610335565b820191906000526020600020905b81548152906001019060200180831161031857829003601f168201915b5050505050815260200160018201805461034e90611a2a565b80601f016020809104026020016040519081016040528092919081815260200182805461037a90611a2a565b80156103c75780601f1061039c576101008083540402835291602001916103c7565b820191906000526020600020905b8154815290600101906020018083116103aa57829003601f168201915b505050505081526020016002820160009054906101000a900460ff1660ff1660ff1681526020016003820180546103fd90611a2a565b80601f016020809104026020016040519081016040528092919081815260200182805461042990611a2a565b80156104765780601f1061044b57610100808354040283529160200191610476565b820191906000526020600020905b81548152906001019060200180831161045957829003601f168201915b5050505050815260200160048201805461048f90611a2a565b80601f01602080910402602001604051908101604052809291908181526020018280546104bb90611a2a565b80156105085780601f106104dd57610100808354040283529160200191610508565b820191906000526020600020905b8154815290600101906020018083116104eb57829003601f168201915b505050505081526020016005820160009054906101000a900460ff1615151515815250509050806000015181602001518260400151836060015184608001518560a001519650965096509650965096505091939550919395565b600062015180600560003373ffffffffffffffffffffffffffffffffffffffff1673ffffffffffffffffffffffffffffffffffffffff168152602001908152602001600020600401546105b59190611913565b600381905550600354421115610600576040517f08c379a00000000000000000000000000000000000000000000000000000000081526004016105f7906117c6565b60405180910390fd5b6040518060400160405280600881526020017f52455455524e4544000000000000000000000000000000000000000000000000815250600560003373ffffffffffffffffffffffffffffffffffffffff1673ffffffffffffffffffffffffffffffffffffffff168152602001908152602001600020600301908051906020019061068b929190611113565b50600160048360ff16815481106106a5576106a4611b34565b5b906000526020600020906006020160050160006101000a81548160ff021916908315150217905550600260003373ffffffffffffffffffffffffffffffffffffffff1673ffffffffffffffffffffffffffffffffffffffff168152602001908152602001600020600081548092919061071d90611a00565b919050555060019050919050565b6004818154811061073b57600080fd5b906000526020600020906006020160009150905080600001805461075e90611a2a565b80601f016020809104026020016040519081016040528092919081815260200182805461078a90611a2a565b80156107d75780601f106107ac576101008083540402835291602001916107d7565b820191906000526020600020905b8154815290600101906020018083116107ba57829003601f168201915b5050505050908060010180546107ec90611a2a565b80601f016020809104026020016040519081016040528092919081815260200182805461081890611a2a565b80156108655780601f1061083a57610100808354040283529160200191610865565b820191906000526020600020905b81548152906001019060200180831161084857829003601f168201915b5050505050908060020160009054906101000a900460ff169080600301805461088d90611a2a565b80601f01602080910402602001604051908101604052809291908181526020018280546108b990611a2a565b80156109065780601f106108db57610100808354040283529160200191610906565b820191906000526020600020905b8154815290600101906020018083116108e957829003601f168201915b50505050509080600401805461091b90611a2a565b80601f016020809104026020016040519081016040528092919081815260200182805461094790611a2a565b80156109945780601f1061096957610100808354040283529160200191610994565b820191906000526020600020905b81548152906001019060200180831161097757829003601f168201915b5050505050908060050160009054906101000a900460ff16905086565b60008054906101000a900473ffffffffffffffffffffffffffffffffffffffff1673ffffffffffffffffffffffffffffffffffffffff163373ffffffffffffffffffffffffffffffffffffffff1614610a3f576040517f08c379a0000000000000000000000000000000000000000000000000000000008152600401610a3690611846565b60405180910390fd5b60046040518060c001604052808881526020018781526020018660ff16815260200185815260200184815260200183151581525090806001815401808255809150506001900390600052602060002090600602016000909190919091506000820151816000019080519060200190610ab8929190611113565b506020820151816001019080519060200190610ad5929190611113565b5060408201518160020160006101000a81548160ff021916908360ff1602179055506060820151816003019080519060200190610b13929190611113565b506080820151816004019080519060200190610b30929190611113565b5060a08201518160050160006101000a81548160ff0219169083151502179055505050505050505050565b60008060009054906101000a900473ffffffffffffffffffffffffffffffffffffffff1673ffffffffffffffffffffffffffffffffffffffff163373ffffffffffffffffffffffffffffffffffffffff1614610bec576040517f08c379a0000000000000000000000000000000000000000000000000000000008152600401610be3906117a6565b60405180910390fd5b600154905090565b60008054906101000a900473ffffffffffffffffffffffffffffffffffffffff1681565b60008054906101000a900473ffffffffffffffffffffffffffffffffffffffff1673ffffffffffffffffffffffffffffffffffffffff163373ffffffffffffffffffffffffffffffffffffffff1614610ca6576040517f08c379a0000000000000000000000000000000000000000000000000000000008152600401610c9d906117e6565b60405180910390fd5b60015460008054906101000a900473ffffffffffffffffffffffffffffffffffffffff1673ffffffffffffffffffffffffffffffffffffffff1631610ceb9190611913565b506000600181905550565b6000816001151560048260ff1681548110610d1457610d13611b34565b5b906000526020600020906006020160050160009054906101000a900460ff16151514610d75576040517f08c379a0000000000000000000000000000000000000000000000000000000008152600401610d6c90611826565b60405180910390fd5b6000600260003373ffffffffffffffffffffffffffffffffffffffff1673ffffffffffffffffffffffffffffffffffffffff1681526020019081526020016000205414610df7576040517f08c379a0000000000000000000000000000000000000000000000000000000008152600401610dee90611806565b60405180910390fd5b60048360ff1681548110610e0e57610e0d611b34565b5b9060005260206000209060060201600001604051602001610e2f91906116bc565b6040516020818303038152906040528051906020012084604051602001610e5691906116a5565b6040516020818303038152906040528051906020012014610eac576040517f08c379a0000000000000000000000000000000000000000000000000000000008152600401610ea390611786565b60405180910390fd5b85600560003373ffffffffffffffffffffffffffffffffffffffff1673ffffffffffffffffffffffffffffffffffffffff1681526020019081526020016000206000019080519060200190610f02929190611113565b5084600560003373ffffffffffffffffffffffffffffffffffffffff1673ffffffffffffffffffffffffffffffffffffffff16815260200190815260200160002060010160006101000a81548160ff021916908360ff16021790555086600560003373ffffffffffffffffffffffffffffffffffffffff1673ffffffffffffffffffffffffffffffffffffffff1681526020019081526020016000206002019080519060200190610fb4929190611113565b5083600560003373ffffffffffffffffffffffffffffffffffffffff1673ffffffffffffffffffffffffffffffffffffffff168152602001908152602001600020600301908051906020019061100b929190611113565b50600060048460ff168154811061102557611024611b34565b5b906000526020600020906006020160050160006101000a81548160ff02191690831515021790555042600560003373ffffffffffffffffffffffffffffffffffffffff1673ffffffffffffffffffffffffffffffffffffffff16815260200190815260200160002060040181905550600260003373ffffffffffffffffffffffffffffffffffffffff1673ffffffffffffffffffffffffffffffffffffffff16815260200190815260200160002060008154809291906110e490611a8d565b9190505550600191505095945050505050565b80600160008282546111099190611913565b9250508190555050565b82805461111f90611a2a565b90600052602060002090601f0160209004810192826111415760008555611188565b82601f1061115a57805160ff1916838001178555611188565b82800160010185558215611188579182015b8281111561118757825182559160200191906001019061116c565b5b5090506111959190611199565b5090565b5b808211156111b257600081600090555060010161119a565b5090565b60006111c96111c4846118a6565b611881565b9050828152602081018484840111156111e5576111e4611b97565b5b6111f08482856119be565b509392505050565b60008135905061120781611dba565b92915050565b600082601f83011261122257611221611b92565b5b81356112328482602086016111b6565b91505092915050565b60008135905061124a81611dd1565b92915050565b60008135905061125f81611de8565b92915050565b60008060008060008060c0878903121561128257611281611ba1565b5b600087013567ffffffffffffffff8111156112a05761129f611b9c565b5b6112ac89828a0161120d565b965050602087013567ffffffffffffffff8111156112cd576112cc611b9c565b5b6112d989828a0161120d565b95505060406112ea89828a01611250565b945050606087013567ffffffffffffffff81111561130b5761130a611b9c565b5b61131789828a0161120d565b935050608087013567ffffffffffffffff81111561133857611337611b9c565b5b61134489828a0161120d565b92505060a061135589828a016111f8565b9150509295509295509295565b600080600080600060a0868803121561137e5761137d611ba1565b5b600086013567ffffffffffffffff81111561139c5761139b611b9c565b5b6113a88882890161120d565b955050602086013567ffffffffffffffff8111156113c9576113c8611b9c565b5b6113d58882890161120d565b94505060406113e688828901611250565b935050606086013567ffffffffffffffff81111561140757611406611b9c565b5b6114138882890161120d565b925050608061142488828901611250565b9150509295509295909350565b60006020828403121561144757611446611ba1565b5b60006114558482850161123b565b91505092915050565b60006020828403121561147457611473611ba1565b5b600061148284828501611250565b91505092915050565b61149481611969565b82525050565b6114a38161197b565b82525050565b60006114b4826118ec565b6114be81856118f7565b93506114ce8185602086016119cd565b6114d781611ba6565b840191505092915050565b60006114ed826118ec565b6114f78185611908565b93506115078185602086016119cd565b80840191505092915050565b6000815461152081611a2a565b61152a8186611908565b94506001821660008114611545576001811461155657611589565b60ff19831686528186019350611589565b61155f856118d7565b60005b8381101561158157815481890152600182019150602081019050611562565b838801955050505b50505092915050565b600061159f6035836118f7565b91506115aa82611bb7565b604082019050919050565b60006115c26037836118f7565b91506115cd82611c06565b604082019050919050565b60006115e5602c836118f7565b91506115f082611c55565b604082019050919050565b6000611608602c836118f7565b915061161382611ca4565b604082019050919050565b600061162b6014836118f7565b915061163682611cf3565b602082019050919050565b600061164e6028836118f7565b915061165982611d1c565b604082019050919050565b60006116716027836118f7565b915061167c82611d6b565b604082019050919050565b611690816119a7565b82525050565b61169f816119b1565b82525050565b60006116b182846114e2565b915081905092915050565b60006116c88284611513565b915081905092915050565b60006020820190506116e8600083018461148b565b92915050565b6000602082019050611703600083018461149a565b92915050565b600060c082019050818103600083015261172381896114a9565b9050818103602083015261173781886114a9565b90506117466040830187611696565b818103606083015261175881866114a9565b9050818103608083015261176c81856114a9565b905061177b60a083018461149a565b979650505050505050565b6000602082019050818103600083015261179f81611592565b9050919050565b600060208201905081810360008301526117bf816115b5565b9050919050565b600060208201905081810360008301526117df816115d8565b9050919050565b600060208201905081810360008301526117ff816115fb565b9050919050565b6000602082019050818103600083015261181f8161161e565b9050919050565b6000602082019050818103600083015261183f81611641565b9050919050565b6000602082019050818103600083015261185f81611664565b9050919050565b600060208201905061187b6000830184611687565b92915050565b600061188b61189c565b90506118978282611a5c565b919050565b6000604051905090565b600067ffffffffffffffff8211156118c1576118c0611b63565b5b6118ca82611ba6565b9050602081019050919050565b60008190508160005260206000209050919050565b600081519050919050565b600082825260208201905092915050565b600081905092915050565b600061191e826119a7565b9150611929836119a7565b9250827fffffffffffffffffffffffffffffffffffffffffffffffffffffffffffffffff0382111561195e5761195d611ad6565b5b828201905092915050565b600061197482611987565b9050919050565b60008115159050919050565b600073ffffffffffffffffffffffffffffffffffffffff82169050919050565b6000819050919050565b600060ff82169050919050565b82818337600083830152505050565b60005b838110156119eb5780820151818401526020810190506119d0565b838111156119fa576000848401525b50505050565b6000611a0b826119a7565b91506000821415611a1f57611a1e611ad6565b5b600182039050919050565b60006002820490506001821680611a4257607f821691505b60208210811415611a5657611a55611b05565b5b50919050565b611a6582611ba6565b810181811067ffffffffffffffff82111715611a8457611a83611b63565b5b80604052505050565b6000611a98826119a7565b91507fffffffffffffffffffffffffffffffffffffffffffffffffffffffffffffffff821415611acb57611aca611ad6565b5b600182019050919050565b7f4e487b7100000000000000000000000000000000000000000000000000000000600052601160045260246000fd5b7f4e487b7100000000000000000000000000000000000000000000000000000000600052602260045260246000fd5b7f4e487b7100000000000000000000000000000000000000000000000000000000600052603260045260246000fd5b7f4e487b7100000000000000000000000000000000000000000000000000000000600052604160045260246000fd5b600080fd5b600080fd5b600080fd5b600080fd5b6000601f19601f8301169050919050565b7f536f72727921204361742773206e616d6520646f6573206e6f74206d6174636860008201527f20776974682074686520696e64657820676976656e0000000000000000000000602082015250565b7f536f72727921204f6e6c7920746865206f776e6572206d617920696e7175697260008201527f652074686520646f6e6174696f6e2062616c616e63652e000000000000000000602082015250565b7f52657475726e73206d7573742062652077697468696e20323420686f7572732060008201527f6f662061646f7074696f6e210000000000000000000000000000000000000000602082015250565b7f536f72727921204f6e6c7920746865206f776e6572206d617920636f6c6c656360008201527f7420646f6e6174696f6e732e0000000000000000000000000000000000000000602082015250565b7f596f7520616c72656164792061646f7074656421000000000000000000000000600082015250565b7f536f7272792120546869732063617420686173206265656e2061646f7074656460008201527f20616c7265616479000000000000000000000000000000000000000000000000602082015250565b7f536f72727921204f6e6c7920746865206f776e6572206d6179207368656c746560008201527f7220636174732e00000000000000000000000000000000000000000000000000602082015250565b611dc38161197b565b8114611dce57600080fd5b50565b611dda816119a7565b8114611de557600080fd5b50565b611df1816119b1565b8114611dfc57600080fd5b5056fea26469706673582212200cd478be53305a80e5c033120d8d639aa89d6850408f862febcf1e8bc80e752b64736f6c63430008070033",
  "immutableReferences": {},
  "source": "// SPDX-License-Identifier: Gabriela Kadzielawa 2023\n// compiler version must be greater than or equal to 0.8.3 and less than 0.9.0\npragma solidity >=0.8.7;\n\ncontract CatRescue {\n\n    address payable public owner;\n    uint256 balance = address(this).balance;\n    mapping(address => uint) adopted;\n    uint returnExpiration;\n\n    modifier isAllowed(uint8 catIndex) {\n        require(cat[catIndex].available == true, \"Sorry! This cat has been adopted already\");\n        _;\n    } \n\n    struct Cat {\n        string catsName;\n        string gender;\n        uint8 age;\n        string description;\n        string hash;\n        bool available;   \n    }\n    Cat[] public cat;\n\n    struct Customer {\n        string gender;\n        uint8 age;\n        string name;\n        string pet;\n        uint adoptionTime;\n    }\n    mapping (address => Customer) private Customers;\n\n    constructor() public {\n        owner = payable(msg.sender);\n        adopted[msg.sender] = 0;\n    }\n\n    function add(string memory _catName, string memory _catGender, uint8 _catAge, string memory _description, string memory _hash, bool _available) public {\n        require(msg.sender == owner, \"Sorry! Only the owner may shelter cats.\");\n\n        cat.push(Cat({\n            catsName : _catName,\n            gender : _catGender,\n            age : _catAge,\n            description : _description,\n            hash : _hash,\n            available : _available\n        }));\n    }\n\n    function adopt(string memory personName, string memory personGender, uint8 personAge, string memory _catsName, uint8 catIndex) public isAllowed(catIndex) returns(bool adoptionSuccess) {\n        require(adopted[msg.sender] == 0, \"You already adopted!\");\n        require(keccak256(abi.encodePacked(_catsName)) == keccak256(abi.encodePacked(cat[catIndex].catsName)), \"Sorry! Cat's name does not match with the index given\");\n\n        Customers[msg.sender].gender = personGender;\n        Customers[msg.sender].age = personAge;\n        Customers[msg.sender].name = personName;\n        Customers[msg.sender].pet = _catsName;\n        cat[catIndex].available = false;\n        Customers[msg.sender].adoptionTime = block.timestamp;\n        adopted[msg.sender]++;\n        return true;\n    }\n\n    function returnCatToShelter(uint8 catIndex) public returns(bool returnSuccess) {\n        returnExpiration = Customers[msg.sender].adoptionTime + 1 days;\n        require(block.timestamp <= returnExpiration, \"Returns must be within 24 hours of adoption!\");\n\n        Customers[msg.sender].pet = \"RETURNED\";\n        cat[catIndex].available = true;\n        adopted[msg.sender]--;\n        return true;\n    }\n\n    function donate(uint256 value) public payable {\n        balance += value;\n    }\n\n    function getDonationBalance() public view returns(uint256 donationTotal) {\n        require(msg.sender == owner, \"Sorry! Only the owner may inquire the donation balance.\");\n        return balance;\n    }\n\n    function withdrawDonations() public payable {\n        require(msg.sender == owner, \"Sorry! Only the owner may collect donations.\");\n        owner.balance + balance;\n        balance = 0;\n    }\n\n    function getCatsCount() public view returns (uint256 catCount) {\n        return cat.length;\n    }\n\n    function getCat(uint8 catIndex) public view returns(string memory name, string memory gender, uint8 age, string memory description, string memory _hash, bool available) {\n        Cat memory specificCat = cat[catIndex];\n        return(specificCat.catsName, specificCat.gender, specificCat.age, specificCat.description, specificCat.hash, specificCat.available);\n    }\n\n    // function getReceipt() public view returns(string memory customers_name, uint customers_age, string memory customers_gender, string memory customers_pet) {\n    //     return(Customers[msg.sender].name, Customers[msg.sender].age, Customers[msg.sender].gender, Customers[msg.sender].pet);\n    // }\n}",
  "sourcePath": "/Users/gabrielakadzielawa/Desktop/CatRescue copy/DApp-CatRescue-Project/contracts/CatRescue.sol",
  "compiler": {
    "name": "solc",
    "version": "0.8.7+commit.e28d00a7.Emscripten.clang"
  },
  "schemaVersion": "3.4.1",
  "updatedAt": "2023-09-05T23:20:27.275Z",
  "networkType": "ethereum",
  "devdoc": {
    "kind": "dev",
    "methods": {},
    "version": 1
  },
  "userdoc": {
    "kind": "user",
    "methods": {},
    "version": 1
  }
}